:0300000002004CAF
:200008000000E2FBEAF2802C0000E0FBEAF08024E6B50202EBF62200E2B50202EBF22200DE
:20002800E0B50202EBF02230F6E0A88220F5D3EAC6F582228B822230F6E6A88220F5D980EE
:01004800CFE8
:0300A5000200490D
:030049000200A80A
:2000A8007508C07509F9750ADB750BB0750C9A750D92750E82750FF8751080751190E4F556
:2000C8001AF51BF512F513F514F515F516F517F518F5197ED77F09C374E89E74838FF06327
:2000E800F08095F0501774012512FCE43513FD8C128D13EE2418FEEF34FCFF80DAC3746452
:200108009E74808FF063F08095F0501774012514FCE43515FD8C148D15EE249CFEEF34FF22
:20012800FF80DAC3740A9E74808FF063F08095F0501774012516FCE43517FD8C168D17EE40
:2001480024F6FEEF34FFFF80DAC374019E74808FF063F08095F0501474012518FCE435191F
:20016800FD8C188D191EBEFF011F80DDD287C2B3C2B4E5142408F98790C2B3C2B4E5142457
:2001880008F98790D2B3C2B4E5142408F98790C2B3D2B4E5142408F98790D2B3D2B480CC88
:06007B00E478FFF6D8FD59
:200059007900E94400601B7A009001AC780175A000E493F2A308B8000205A0D9F4DAF275A0
:02007900A0FFE6
:200081007800E84400600A790175A000E4F309D8FC7800E84400600C7900900001E4F0A37D
:0400A100D8FCD9FAB4
:0D004C0075811B1201A8E5826003020049C6
:0401A800758200223A
:00000001FF
