:040000000200543274
:03000B000200B040
:200010000000E2FBEAF2802C0000E0FBEAF08024E6B50202EBF62200E2B50202EBF22200D6
:20003000E0B50202EBF02230F6E0A88220F5D3EAC6F582228B822230F6E6A88220F5D980E6
:01005000CFE0
:0300AD00020051FD
:030051000200B1F9
:2000B000327589017508FF759000758C03758AE8D28C308DFDE508F4F590E508C28D80E772
:06008300E478FFF6D8FD51
:200061007900E94400601B7A009000D4780175A000E493F2A308B8000205A0D9F4DAF27571
:02008100A0FFDE
:200089007800E84400600A790175A000E4F309D8FC7800E84400600C7900900001E4F0A375
:0400A900D8FCD9FAAC
:0D0054007581081200D0E5826003020051A2
:0400D0007582002213
:00000001FF
