:0300000002004CAF
:200008000000E2FBEAF2802C0000E0FBEAF08024E6B50202EBF62200E2B50202EBF22200DE
:20002800E0B50202EBF02230F6E0A88220F5D3EAC6F582228B822230F6E6A88220F5D980EE
:01004800CFE8
:0300A5000200490D
:030049000200A80A
:0B00A8007508C07509F985099080FB00
:06007B00E478FFF6D8FD59
:200059007900E94400601B7A009000B7780175A000E493F2A308B8000205A0D9F4DAF27596
:02007900A0FFE6
:200081007800E84400600A790175A000E4F309D8FC7800E84400600C7900900001E4F0A37D
:0400A100D8FCD9FAB4
:0D004C007581111200B3E5826003020049C6
:0400B3007582002230
:00000001FF
